{
  "_format": "hh-sol-artifact-1",
  "contractName": "CodingBattle",
  "sourceName": "contracts/Battle.sol",
  "abi": [
    {
      "inputs": [],
      "stateMutability": "nonpayable",
      "type": "constructor"
    },
    {
      "inputs": [],
      "name": "gameEnded",
      "outputs": [
        {
          "internalType": "bool",
          "name": "",
          "type": "bool"
        }
      ],
      "stateMutability": "view",
      "type": "function"
    },
    {
      "inputs": [],
      "name": "gameStarted",
      "outputs": [
        {
          "internalType": "bool",
          "name": "",
          "type": "bool"
        }
      ],
      "stateMutability": "view",
      "type": "function"
    },
    {
      "inputs": [],
      "name": "joinGame",
      "outputs": [],
      "stateMutability": "payable",
      "type": "function"
    },
    {
      "inputs": [],
      "name": "player1",
      "outputs": [
        {
          "internalType": "address",
          "name": "",
          "type": "address"
        }
      ],
      "stateMutability": "view",
      "type": "function"
    },
    {
      "inputs": [],
      "name": "player2",
      "outputs": [
        {
          "internalType": "address",
          "name": "",
          "type": "address"
        }
      ],
      "stateMutability": "view",
      "type": "function"
    },
    {
      "inputs": [],
      "name": "stake",
      "outputs": [
        {
          "internalType": "uint256",
          "name": "",
          "type": "uint256"
        }
      ],
      "stateMutability": "view",
      "type": "function"
    },
    {
      "inputs": [
        {
          "internalType": "bool",
          "name": "isCorrect",
          "type": "bool"
        }
      ],
      "name": "submitSolution",
      "outputs": [],
      "stateMutability": "nonpayable",
      "type": "function"
    },
    {
      "inputs": [],
      "name": "winner",
      "outputs": [
        {
          "internalType": "address",
          "name": "",
          "type": "address"
        }
      ],
      "stateMutability": "view",
      "type": "function"
    }
  ],
  "bytecode": "0x6080604052348015600f57600080fd5b506000600360146101000a81548160ff0219169083151502179055506000600360156101000a81548160ff021916908315150217905550610ac3806100556000396000f3fe60806040526004361061007b5760003560e01c80635e123ce41161004e5780635e123ce41461012a578063d30895e414610155578063d4f77b1c14610180578063dfbf53ae1461018a5761007b565b806303150347146100805780632f6fe396146100a95780633a4b66f1146100d457806359a5f12d146100ff575b600080fd5b34801561008c57600080fd5b506100a760048036038101906100a2919061070d565b6101b5565b005b3480156100b557600080fd5b506100be61040b565b6040516100cb9190610749565b60405180910390f35b3480156100e057600080fd5b506100e961041e565b6040516100f6919061077d565b60405180910390f35b34801561010b57600080fd5b50610114610424565b60405161012191906107d9565b60405180910390f35b34801561013657600080fd5b5061013f61044a565b60405161014c9190610749565b60405180910390f35b34801561016157600080fd5b5061016a61045d565b60405161017791906107d9565b60405180910390f35b610188610481565b005b34801561019657600080fd5b5061019f6106aa565b6040516101ac91906107d9565b60405180910390f35b60008054906101000a900473ffffffffffffffffffffffffffffffffffffffff1673ffffffffffffffffffffffffffffffffffffffff163373ffffffffffffffffffffffffffffffffffffffff16148061025c5750600160009054906101000a900473ffffffffffffffffffffffffffffffffffffffff1673ffffffffffffffffffffffffffffffffffffffff163373ffffffffffffffffffffffffffffffffffffffff16145b61029b576040517f08c379a000000000000000000000000000000000000000000000000000000000815260040161029290610851565b60405180910390fd5b600360149054906101000a900460ff166102ea576040517f08c379a00000000000000000000000000000000000000000000000000000000081526004016102e1906108bd565b60405180910390fd5b600360159054906101000a900460ff161561033a576040517f08c379a000000000000000000000000000000000000000000000000000000000815260040161033190610929565b60405180910390fd5b80156104085733600360006101000a81548173ffffffffffffffffffffffffffffffffffffffff021916908373ffffffffffffffffffffffffffffffffffffffff1602179055506001600360156101000a81548160ff021916908315150217905550600360009054906101000a900473ffffffffffffffffffffffffffffffffffffffff1673ffffffffffffffffffffffffffffffffffffffff166108fc6002549081150290604051600060405180830381858888f19350505050158015610406573d6000803e3d6000fd5b505b50565b600360159054906101000a900460ff1681565b60025481565b600160009054906101000a900473ffffffffffffffffffffffffffffffffffffffff1681565b600360149054906101000a900460ff1681565b60008054906101000a900473ffffffffffffffffffffffffffffffffffffffff1681565b600360149054906101000a900460ff16156104d1576040517f08c379a00000000000000000000000000000000000000000000000000000000081526004016104c890610995565b60405180910390fd5b66038d7ea4c68000341461051a576040517f08c379a000000000000000000000000000000000000000000000000000000000815260040161051190610a01565b60405180910390fd5b600073ffffffffffffffffffffffffffffffffffffffff1660008054906101000a900473ffffffffffffffffffffffffffffffffffffffff1673ffffffffffffffffffffffffffffffffffffffff16036105b357336000806101000a81548173ffffffffffffffffffffffffffffffffffffffff021916908373ffffffffffffffffffffffffffffffffffffffff1602179055506106a8565b600073ffffffffffffffffffffffffffffffffffffffff16600160009054906101000a900473ffffffffffffffffffffffffffffffffffffffff1673ffffffffffffffffffffffffffffffffffffffff1614610644576040517f08c379a000000000000000000000000000000000000000000000000000000000815260040161063b90610a6d565b60405180910390fd5b33600160006101000a81548173ffffffffffffffffffffffffffffffffffffffff021916908373ffffffffffffffffffffffffffffffffffffffff1602179055506001600360146101000a81548160ff021916908315150217905550476002819055505b565b600360009054906101000a900473ffffffffffffffffffffffffffffffffffffffff1681565b600080fd5b60008115159050919050565b6106ea816106d5565b81146106f557600080fd5b50565b600081359050610707816106e1565b92915050565b600060208284031215610723576107226106d0565b5b6000610731848285016106f8565b91505092915050565b610743816106d5565b82525050565b600060208201905061075e600083018461073a565b92915050565b6000819050919050565b61077781610764565b82525050565b6000602082019050610792600083018461076e565b92915050565b600073ffffffffffffffffffffffffffffffffffffffff82169050919050565b60006107c382610798565b9050919050565b6107d3816107b8565b82525050565b60006020820190506107ee60008301846107ca565b92915050565b600082825260208201905092915050565b7f4e6f742061207061727469636970616e74000000000000000000000000000000600082015250565b600061083b6011836107f4565b915061084682610805565b602082019050919050565b6000602082019050818103600083015261086a8161082e565b9050919050565b7f47616d65206e6f74207374617274656400000000000000000000000000000000600082015250565b60006108a76010836107f4565b91506108b282610871565b602082019050919050565b600060208201905081810360008301526108d68161089a565b9050919050565b7f47616d6520616c726561647920656e6465640000000000000000000000000000600082015250565b60006109136012836107f4565b915061091e826108dd565b602082019050919050565b6000602082019050818103600083015261094281610906565b9050919050565b7f47616d6520616c72656164792073746172746564000000000000000000000000600082015250565b600061097f6014836107f4565b915061098a82610949565b602082019050919050565b600060208201905081810360008301526109ae81610972565b9050919050565b7f496e636f727265637420656e7472792066656500000000000000000000000000600082015250565b60006109eb6013836107f4565b91506109f6826109b5565b602082019050919050565b60006020820190508181036000830152610a1a816109de565b9050919050565b7f47616d652069732066756c6c0000000000000000000000000000000000000000600082015250565b6000610a57600c836107f4565b9150610a6282610a21565b602082019050919050565b60006020820190508181036000830152610a8681610a4a565b905091905056fea26469706673582212203d42c4b6308ac0b8bfab01a8f4d0924d6205cac6315de04b6ddf2058e15cca9464736f6c634300081b0033",
  "linkReferences": {},
  "deployedLinkReferences": {}
}